:020000040800F2
:1000000028120020DD010008E1010008E3010008DA
:10001000E5010008E7010008E90100080000000010
:10002000000000000000000000000000EB010008DC
:10003000ED01000800000000EF010008F1010008D8
:10004000F3010008F3010008F3010008F3010008C0
:10005000F3010008F3010008F3010008F3010008B0
:10006000F30100088D1A0008F3010008F3010008ED
:10007000F3010008F3010008F3010008F301000890
:10008000F3010008F3010008F3010008F301000880
:10009000F3010008F3010008F30100089754000879
:1000A000F3010008F3010008F3010008F301000860
:1000B00063190008F3010008FB1A0008F3010008A7
:1000C000F3010008F3010008F3010008F301000840
:1000D000F3010008F3010008E30700080921000804
:1000E0007B190008F3010008F301000800F002F892
:1000F00000F05FF80AA090E8000C82448344AAF163
:100100000107DA4501D100F054F8AFF2090EBAE860
:100110000F0013F0010F18BFFB1A43F0010318473B
:10012000E8EB000008EC00000A444FF0000C10F867
:10013000013B13F0070408BF10F8014B1D1108BF65
:1001400010F8015B641E05D010F8016B641E01F805
:10015000016BF9D113F0080F1EBF10F8014BAD1C55
:100160000C1B09D16D1E58BF01F801CBFAD505E073
:1001700014F8016B01F8016B6D1EF9D59142D6D3CD
:10018000704700000023002400250026103A28BFF5
:1001900078C1FBD8520728BF30C148BF0B607047F9
:1001A00064290AF0C584002070471FB51FBD10B533
:1001B00010BD0AF08DFE1146FFF7F7FF00F02AF898
:1001C0000AF0ABFE03B4FFF7F2FF03BC00F068FADD
:1001D00030BF72B662B680F308887047084800479F
:1001E000FEE7FEE7FEE7FEE7FEE7FEE7FEE7FEE7E7
:1001F000FEE7FEE703480449044A054B7047000048
:10020000ED000008280C002028120020280E0020F5
:10021000280E0020092000F0EAF9482000F08AF8B2
:10022000022000F0CFF900F0FFFC00F04FFD39484C
:10023000006818B901203849087002E000203649EA
:10024000087000F093FF4FF4E131242000F056FADB
:100250004FF41651242001F0E5FE01F03DFA01F0C3
:1002600093FA01F0C5FA01F02BFB01F04DF801F013
:1002700053FC08F02EFB08F040FB002141F61F4024
:1002800001F037F902F033FA02F0F2F840E02348C7
:100290000078012804D102F0D9FA00201F49087023
:1002A0001F48007858B108F0BBFD1D480078401E7B
:1002B0001B4908700846007808B900F04AFE194842
:1002C000007838B909F036FC1548007858B908F0BC
:1002D000BAFD08E013480078012802D109F0E1FDD9
:1002E00001E009F0C4FC1048007830B10E480078F5
:1002F00009F058FF00200C49087001200B490870D4
:1003000000200B49087000BF084800780028FBD186
:10031000BDE70000308121426E0000207200002005
:10032000C800002004000020C20000206900002056
:10033000680000204FF0E021096921F004014FF02E
:10034000E0221161C21700EB5272C2F3C702234BC5
:100350001A701946097801EB4102C2EBC1114FF640
:10036000FF7202EAC1011E4A1180704701461B4A12
:1003700012784A434FF0E0235A6100229A61012229
:100380001A6100BF4FF0E022106900F001021AB1BB
:1003900000F48032002AF5D000224FF0E0231A61E9
:1003A0009A61704701460E4A12884A434FF0E02393
:1003B0005A6100229A6101221A6100BF4FF0E022C7
:1003C000106900F001021AB100F48032002AF5D061
:1003D00000224FF0E0231A619A617047CA000020A2
:1003E000CC000020A34A0A400243A34B1A60704786
:1003F0000146072323EA010212029F4B1B1D1868C6
:100400004FF6FF0318409D4B184310439A4B1B1D9A
:10041000186070472DE9F0410746884614461D468E
:100420002846FFF7E5FFC5F1040007FA00F60F20A4
:10043000284100EA0800064306F00F06E21704EB25
:10044000D2625211920002F1E022D2F8002121463C
:10045000E31704EBD3635B11A4EB431C012303FA02
:100460000CF31A432046E31704EBD3635B119B00A4
:1004700003F1E023C3F800218148005D40EA061043
:100480007F490855BDE8F08170B504460B46CE178C
:1004900001EB9676C6F38700CE1701EB9676B61081
:1004A000A1EB8606B606350E764B9B6943F0010339
:1004B000744EB3614FEAB63353F820300F26AE4086
:1004C000B343714E46F82030334653F8203004FAD7
:1004D00005F61E436C4B43F820606C4B1B680126ED
:1004E0008E403343694E336002F0010343B1674BE2
:1004F0000C331B6801268E403343644E0C36336048
:1005000002F0020343B1614B08331E6801238B40A4
:100510001E435E4B08331E6070BD00B50020594974
:100520000861C8601420486100208861C8610846DD
:10053000006840F0010008600846406854490840DF
:100540005049486008460068524908404D490860D3
:100550000846006820F4802008600846406820F4BF
:10056000FE0048600020886000214FF00060FFF727
:1005700039FF00BD10B540480830006840F0040065
:100580003D49083108603F48C06940F080503D490E
:10059000C8614148406840F480703F49486008465F
:1005A000006840F0040008600846006840F002005F
:1005B0000860FFF70DFE10BD3048001D2E49091DD3
:1005C00008607047014649062E4A926942F00102CE
:1005D0002C4B9A612C4A083A526822F0E0622A4B6E
:1005E000083B5A601A4652680A435A60704730B551
:1005F00004460025FFF791FF2248006840F4803050
:100600002049086000BF1F480068400C0028FAD04D
:100610004FF480601B494860A01EC4B20846406881
:1006200040EA844048600846406840F480304860B2
:100630001A48006840F03200184908601148006804
:1006400040F080700F49086000BF0E480068400EFF
:100650000028FAD00B48406840F002000949486081
:1006600005E008484068C0F3870505F00305022D42
:10067000F7D130BD80FFFF1F08ED00E00000FA0554
:1006800000E400E0001002400800014000040140C6
:100690000000FFF8FFFFF6FE00700040002002405F
:1006A000014600BF7047FE4A127802F0800212B184
:1006B000FC4A12785AB900BFFB4A128802F0400285
:1006C000002AF9D0C2B2F84B1B1D1A800AE000BF05
:1006D000F64A128802F04002002AF9D0C2B2F34B67
:1006E0001B1D1A807047F149091D088000BFEF49A2
:1006F000098801F040010029F9D070472DE9F05F29
:1007000005460E4630010CF087FC8146E84905FBA2
:1007100001F00CF081FC824649460CF033FB0746A1
:1007200038460CF041FC84B220460CF075FC834640
:1007300039460CF0B6FD82464FF083410CF0B4FC14
:1007400081460CF031FC80464FF6FF7000EA04143D
:1007500004EB080084B2D748806940F00400D54912
:1007600088610846C06940F40030C861D24800681A
:1007700020F47F40D04908600846006840F40B40F0
:100780000860CD480C30006840F48060CA490C31E4
:100790000860C848006940F48020C64908610846DE
:1007A000006920F480200861C04808300480001DE2
:1007B000008842F20C010843BC490C31088008460D
:1007C000008840F4807008800846008840F02000CF
:1007D00008800223262201210020FFF71BFEBDE82E
:1007E000F09F2DE9FF5FAE48007800F08000002800
:1007F0006AD1AE48008800F02000002863D0A949E3
:10080000097851B9AD490978491CC9B2AB4A117090
:100810000A2902DD0121A34A1170A449091D098892
:10082000C8B2A749097869B9A6490978FE2909D14A
:10083000A5490978FF2905D10121A14A117000219C
:10084000A24A11709E490978012936D1A0499F4AD0
:10085000127888549D490978491C9C4A11709C491A
:100860000978022919D18E49097801F00701012977
:100870000BD08B49097801F00701022905D088497E
:10088000097801F00701032907D1904909780A295D
:100890000AD100218A4A117006E08C49097808299A
:1008A00002D10021864A11708549097829B9894900
:1008B000097841F00101874A117082490978824A1A
:1008C0001170804908708AE17548007800F0800056
:1008D0000028F8D07548008800F020000028F2D0E9
:1008E0007048007850B975480078401CC0B2734910
:1008F00008700A2802DD01206A4908706B48001D53
:10090000008875490870084600784B2803D10120FB
:10091000724908700AE070480078492803D06E4890
:1009200000784A2802D100206C4908706C48007891
:1009300000284DD169480078D0B96748007841282F
:1009400009DB65480078482805DC634800784038B2
:10095000644908703CE060480078082804DC5E4880
:1009600000786049087033E000205E4908702FE08D
:100970005A48007801282BD157480078432806D1DF
:100980000020594908700120584908700FE052486A
:100990000078472806D101205349087000205349A8
:1009A000087004E0002050490870504908704A4817
:1009B0000078412803D048480078452805D14648AA
:1009C000007840384749087002E000204549087027
:1009D000414800787B2802D10120454908703E48F3
:1009E00000787D2802D102204149087040480078F3
:1009F00001280AD1384800783E493F4A1278885485
:100A00003D480078401C3C4908703948007802286D
:100A100045D13848C078502803D1012037490870A3
:100A2000D0E03448C078572803D1012034490870F9
:100A3000C8E03048407823286AD02F4800783149F0
:100A400008706FE02C4909782E4A1278881A0BF04A
:100A500088FD02460B46CDE9000100202A490AF034
:100A6000F9FD06460F4627490978491E214A515C7F
:100A7000A1F130000BF075FD804632463B460BF08D
:100A8000D7FD04460D46214800680CF0E1F8824687
:100A900022462B460BF022FBCDE9020139E09EE015
:100AA000BE0000206F0000200048004000440040CD
:100AB00040420F000010024000080140D400002016
:100AC00070000020D6000020D7000020D5000020B4
:100AD00052020020C00000206B0000208300002094
:100AE0006E00002002000020000000200100002015
:100AF000D800002084020020D900002071000020CE
:100B000072000020DA00002000002440DC000020F9
:100B100058E00BF0B1FA3449086034480078401EC0
:100B2000324908703148007804288BDA3048407820
:100B30003038092845D2DFE800F0050C13181D22D3
:100B4000272C3D00284800680CF012FA294908605B
:100B500037E0254800680CF00BFA2749086030E0C0
:100B600021480068254908602BE01F480068244997
:100B7000086026E01C4800682249086021E01A4805
:100B80000068214908601CE0174800681F49086098
:100B900017E0154800680CF007FA1D490880084660
:100BA00000880CF039FA04461A490CF0EBF81A499F
:100BB000086006E00C4800680CF0F6F91749088058
:100BC00000BF00BF00201649087016490870074989
:100BD000087005490860322105480AF019F800201C
:100BE00004B0BDE8F09F0000DC000020DA00002027
:100BF00084020020B4000020B8000020A0000020E3
:100C0000A4000020A8000020AC000020B0000020BC
:100C1000BC0000200050C34714010020BE0000208B
:100C2000D8000020D90000202148806940F004004D
:100C30001F4988611F48006820F070401D49086006
:100C40000846006840F0405008601A4808300068C4
:100C500040F400401749083108601548806940F0A9
:100C60000800134988611448006820F47F00124985
:100C700008600846006840F43300086000200F490F
:100C80000860704718B900210D4A11600FE00D4946
:100C90000968491C0B4A1160814208D1084909685A
:100CA000C943094AC2F8BC110021064A11607047C5
:100CB0000010024004080140040C0140B4812142AC
:100CC000BC012142E0000020000021425F48806911
:100CD00040F008005D4988615D48006820F0706060
:100CE0005B4908600846006840F0006008605848AA
:100CF0000830006840F48040554908310860544885
:100D0000006820F47020524908600846006840F4EA
:100D1000002008604E480830006840F480504C497C
:100D200008310860704701464A48006828B94A48B7
:100D30000088401C484A108002E00020464A10808B
:100D40004448006828B94548007810B90120434A52
:100D5000107043480078B0B940480078012807D1A6
:100D600040480078401C3F4A107001203C4A1070F7
:100D70003C480078022806D100203A4A10703A4ACE
:100D800010800220704733480068012804D10020F9
:100D9000324A1070324A10703248007801281CD153
:100DA00031480088401C304A108010460088884234
:100DB0000ADD29480088884206DA0020294A107096
:100DC000294A10800120DDE723480088884204DD9D
:100DD0000020244A1070244A10800020D2E72348C3
:100DE000007838B11B48006820B900201F490870FE
:100DF0000120704717480068012801D11B4908707D
:100E00000020F6E71A48008840B91248006828B95F
:100E100018480088401C1749088002E00020154946
:100E2000088014480088C82807DD01201049088080
:100E3000002010490880012070470D4800880128D3
:100E400002D100200A4908800020F5E70010024086
:100E5000040C014038812142EA000020E400002017
:100E6000E5000020E6000020E8000020EC00002063
:100E7000F0000020EE00002010B50A4622B1012348
:100E8000FE4C236000BF03E00023FC4C236000BF46
:100E9000002118E00023FA4C236000BF00F080031B
:100EA00023B10123F64C241F236003E00023F44CFC
:100EB000241F236000BF0123F14C23604306180E5A
:100EC00000BF4B1CD9B20829E4DB0123EB4C2360A3
:100ED00000BF10BD30B500241CE004F1B001C8B261
:100EE0000021FFF7C9FF00210846FFF7C5FF0021D9
:100EF0001020FFF7C1FF002508E0E24901EBC50122
:100F0000085D0121FFF7B8FF681CC5B2802DF4DB36
:100F1000601CC4B2082CE0DB30BD00B500218D2080
:100F2000FFF7AAFF00211420FFF7A6FF0021AF2042
:100F3000FFF7A2FF00BD00B500218D20FFF79CFF49
:100F400000211020FFF798FF0021AE20FFF794FF4B
:100F500000BD30B500240CE0002506E00020C949A2
:100F600001EBC5010855681CC5B2802DF6DB601C7D
:100F7000C4B2082CF0DBFFF7ADFF30BDF0B514466E
:100F800000267F2801DC3F2900DDF0BD0B46CF178E
:100F900001EB5777FF10C7F10707FAB2CF1701EB44
:100FA0005777FF10A1EBC707FDB2C5F10707012373
:100FB000BB40DEB24CB1B34B03EBC0039B5C33438D
:100FC000B04F07EBC007BB5408E0AE4B03EBC003C8
:100FD0009B5CB343AB4F07EBC007BB5400BFD4E7E8
:100FE0002DE9F04F80460C4615461E46A346A5F156
:100FF0002000C5B200273EE00C2E07D105EB4500CE
:10100000A14901EB800010F8079004E09F4800EB35
:10101000051010F807904FF0000A26E009F0800054
:1010200028B121464046099AFFF7A8FF09E0099830
:1010300008B9012000E00020024621464046FFF7A3
:101040009DFF4FEA49604FEA1069601CC4B2A4EBEF
:101050000B00B04205D15C4608F1010000F0FF082A
:1010600006E00AF1010000F0FF0ABAF1080FD5DB33
:1010700000BF781CC7B2B742BEDBBDE8F08F10B529
:101080000246012000E050430B1EA1F10104E1B231
:10109000F9D110BD2DE9FF4F81B0074691461E469C
:1010A0000E9D4FF0000A002439E0301B401EC1B2F3
:1010B0000A20FFF7E4FFB9FBF0F00A21B0FBF1F2E0
:1010C00001FB1208BAF1000F16D1701EA04213DD09
:1010D000B8F1000F0ED10120AB4605EBDB714910D2
:1010E00001FB04710090C8B22B4620220299FFF741
:1010F00077FF12E04FF0010A0120AB4605EBDB71F0
:10110000491001FB04710090C8B208F13001CAB265
:101110002B460299FFF764FF00BF601CC4B2B442C3
:10112000C3DB05B0BDE8F08F78B505460E46144622
:1011300018E07A2D03DD002506F11000C6B23A2E24
:1011400004DD002005460646FFF703FF012000905E
:1011500022780C2331462846FFF742FF05F10800AC
:10116000C5B2641C20780028E3D178BD10B548488A
:10117000806940F00800464988614648006820F4CC
:101180007020444908600846006840F40030086058
:101190003F48806940F010003D49886108468069F9
:1011A00040F0010088613C484068C0F313003A49B0
:1011B000486008464068394908433749486038481C
:1011C000006840F48070364908603148006A20F0B9
:1011D00001002F4908623348008820F0010031499E
:1011E00008802F48006820F480702D490860002096
:1011F0002349083908606420FFF7D4F801202A4900
:10120000C1F8B4010021AE20FFF736FE0021D52041
:10121000FFF732FE00215020FFF72EFE0021A8200C
:10122000FFF72AFE00213F20FFF726FE0021D320F2
:10123000FFF722FE00210846FFF71EFE0021402096
:10124000FFF71AFE00218D20FFF716FE0021142063
:10125000FFF712FE00212020FFF70EFE00210220E2
:10126000FFF70AFE0021A120FFF706FE0021C020A3
:10127000FFF702FE0021DA2018E0000090812142F1
:10128000BC012242B602002092D4000806D9000810
:1012900000100240000C014000100140000020221C
:1012A00000700040306C004000002242FFF7E4FD77
:1012B00000211220FFF7E0FD00218120FFF7DCFD77
:1012C0000021EF20FFF7D8FD0021D920FFF7D4FD42
:1012D0000021F120FFF7D0FD0021DB20FFF7CCFD3E
:1012E00000213020FFF7C8FD0021A420FFF7C4FD36
:1012F0000021A620FFF7C0FD0021AF20FFF7BCFDB5
:10130000FFF727FE10BD00006D48806940F0040023
:101310006B4988616B48006820F470006949086077
:101320006748806940F40070654988610846C06874
:1013300040F40070C8600846C06820F40070C860BF
:101340000846406820F4404048600846406840F441
:10135000004048605C4800685C4908405A490860A1
:101360000846006808600846006820F4807008603D
:10137000081D006820F00200091D0860084600688A
:1013800020F4602008600846006840F4602008608F
:101390000846006840F4801008600846006820F4A1
:1013A0000060086048482830006820F47000464912
:1013B00028310860084600680020086042480C3068
:1013C000006820F4700040490C310860084600684D
:1013D00040F4603008603C48001D006840F00100A7
:1013E0003949091D08600846006840F00800086097
:1013F00000BF3548001D006800F008000028F8D143
:101400003148001D006840F004002F49091D0860A4
:1014100000BF2D48001D006800F004000028F8D12E
:101420007047014628483030006820F01F00264AE7
:101430003032106010460068084310602248001DDA
:10144000006840F48000204A121D106000BF1E4852
:10145000001F006800F002000028F8D01A48483049
:10146000006880B270472DE9F04F87B00520FFF784
:10147000D8FF01900BF08CF880464FF06632144B89
:101480000BF0D6F80022134BCDE902010BF0D0F897
:101490000022114BCDE904010BF0CAF806460022E8
:1014A0000E4B0AF0D7FE044600220D4B0AF0D2FE86
:1014B00082460BF027F80690069807B0BDE8F08F3B
:1014C000001002400008014004240140FFFFF0002A
:1014D00066660A4000002640000059400000F03FC8
:1014E0000000B0407748806940F008007549886185
:1014F0007047744A926942F40062724B9A611A46CC
:10150000926942F004029A616F4A12686FF30F0207
:101510006D4B1A601A4612684BF6BB331A436A4B7E
:101520001A606A4A1080121F1180684A103A1288A5
:1015300042F4C042654B103B1A801A46128842F0B2
:1015400060021A801A1F128842F4C0421B1F1A80C0
:101550001A46128842F060021A801A1D128842F45C
:1015600000621B1D1A801A46128842F008021A8077
:101570001A1F128842F400621B1F1A801A46128832
:1015800042F008021A80514A0C3A128842F4805202
:101590004E4B0C3B1A801A46128842F480721A8015
:1015A0001A46128842F010021A801A46128842F037
:1015B00001021A80454A1832128842F40042434B15
:1015C00018331A804FF40042404B2C3B1A801A46C5
:1015D000128842F001021A803A4AD26942F00202AD
:1015E000384BDA611A46926942F008029A61364A2B
:1015F000121F126822F07F42334B1B1F1A601A46DB
:10160000126842F03B421A60314A126822F0FF022F
:101610002F4B1A601A46126842F0BB021A602D4A1C
:101620001080121F11802B4A103A128842F4C042D7
:10163000284B103B1A801A46128842F060021A802A
:101640001A1F128842F4C0421B1F1A801A461288C1
:1016500042F060021A801A1D128842F400621B1DBB
:101660001A801A46128842F008021A801A1F12883D
:1016700042F400621B1F1A801A46128842F00802C8
:101680001A80144A0C3A128842F48052114B0C3BD7
:101690001A801A46128842F480721A801A461288FA
:1016A00042F010021A801A46128842F001021A8093
:1016B000DA13084B2C3B1A801A46128842F00102BA
:1016C0001A80704700100240040801402C2C014091
:1016D000000C01402C04004010B5F748C06940F0F0
:1016E0000100F549C8610846806940F0040088613E
:1016F000F248006820F0FF00F049086008460068E2
:1017000040F044000860C804808940F00100C9042A
:1017100088810846808940F04000888101231C228E
:1017200003211846FEF776FE00204FF08041088521
:101730004FF6FF7088850846008820F440700880C6
:101740000846008820F0600008800846008B40F0C2
:10175000010008830846008B40F480700883084627
:10176000008C20F0020008840846008C20F0200045
:1017700008840846008940F0030008810846008874
:1017800040F00100088010BD10B5CB48806940F0E2
:101790000800C9498861CA48006820F47040C849F7
:1017A00008600846006840F400400860081D0068B2
:1017B00020F07040091D08600846006840F00040B5
:1017C0000860032211460120FEF75EFE03220F216E
:1017D0000120FEF759FE0223092200210846FEF7E8
:1017E00019FE0223282200210846FEF713FE10BD31
:1017F00010B5B148C06940F00400AF49C86108465F
:10180000806940F008008861AD48006820F07F40A2
:10181000AB4908600846006840F088400860A94865
:10182000008840F00100A74908800846008840F081
:101830004000088001231E2203211846FEF7EAFD1E
:101840000020A0491C3108804FF6FF70091D088058
:101850009C480C38008820F440709A490C39088064
:101860000846008820F06000088096480C30008808
:1018700040F0010093490C3108800846008840F48C
:10188000807008808F481430008820F002008D4955
:10189000143108800846008820F02000088089481C
:1018A000001F008840F003008649091F0880854812
:1018B0000C38008840F0010082490C39088010BDC6
:1018C00010B57D48806940F004007B4988617B4801
:1018D000001D006820F07F607849091D08600846F7
:1018E000006840F00860086003220D210020FEF728
:1018F000CBFD03220E210020FEF7C6FD0223282285
:1019000000210846FEF786FD10BD0146022906D0DB
:1019100003290DD0042911D005291ED117E04FF05D
:101920008042928C10B200224FF080439A8416E0DD
:10193000654A10680022644B1A6010E0614A183250
:10194000128810B200225F4B18331A8007E05F4AFA
:10195000106800225D4B1A6001E0002000BF00BF4C
:1019600070474FF08040008A4FF08040008A20F09E
:1019700001004FF08041088270475548006800F42C
:101980000040B0F5004F26D14FF4004050490860A8
:101990005048006801280FD14E483038006828B9F7
:1019A00049480068401C4849086014E046480068FF
:1019B000401E454908600EE046483038006828B9A6
:1019C00041480068401E4049086004E03E48006805
:1019D000401C3D4908603E48006800F40050B0F5E6
:1019E000005F26D14FF40050394908603A4800683A
:1019F00001280FD13848001D006828B93348006815
:101A0000401C3249086014E030480068401E2F49ED
:101A100008600EE03048001D006828B92B480068B7
:101A2000401E2A49086004E028480068401C2749F5
:101A300008602748006800F48040B0F5804F24D14A
:101A40004FF48040224908602348001D006870B9A7
:101A50002148006828B91D480068401C1B490860DF
:101A600013E01A480068401E184908600DE01A4843
:101A7000006828B915480068401E1449086004E051
:101A800012480068401C114908607047082010493E
:101A9000086010483038006800BB0E48006828B95C
:101AA00009480068401C0849086025E006480068AD
:101AB000401E054908601FE0001002400008014078
:101AC000000C01400C080040380000203C000020C1
:101AD000140401403C812142340121420B4800683A
:101AE00028B90B480068401E0949086004E008480E
:101AF0000068401C06490860704706480088054891
:101B0000008820F001000349088070473C81214291
:101B10003800002010080040F748806940F00800B5
:101B2000F5498861F548006820F0FF00F349086036
:101B30000846006840F033000860704710B5EF4871
:101B4000006820F0F000ED4908600846006840F0A9
:101B5000300008600120EA490860EA48D0F8240112
:101B600008B9002010BD0120E549091F0860FEF7F3
:101B7000FDFB0020E349C1F8A401E148803800687A
:101B800008B10020EEE70120FEF7F0FB0020DC4961
:101B9000091F08600120E5E710B5D848006820F06B
:101BA000F000D64908600846006840F03000086040
:101BB0000020D349091F0860D249C1F8A4010120BF
:101BC000FEF7D4FB0120CE49091F0860CD49C1F8BA
:101BD000A401FEF7CBFB10BD10B50024C748006878
:101BE00020F0F000C54908600846006840F0800019
:101BF00008600120C2490860FEF7B8FB0120C14916
:101C0000C1F8A001FEF7B2FB0AE0601CC4B2322C9E
:101C100003DDFFF7C1FF002010BD0120FEF7A6FB8A
:101C2000B748803800680028EFD1B549091F08601F
:101C30000120F1E710B50020B149091F0860AF4845
:101C4000006820F0F000AD4908600846006840F0E8
:101C5000300008600020AB49C1F8A4010120FEF764
:101C600085FB0120A649091F0860FEF77FFB0020C5
:101C7000A449C1F8A00110BD10B50020A049091F5A
:101C800008609E48006820F0F0009C490860084603
:101C9000006840F03000086001209A49C1F8A401B2
:101CA000FEF764FB01209649091F0860FEF75EFB02
:101CB00000209449C1F8A00110BD70B504468F48BA
:101CC000006820F0F0008D4908600846006840F088
:101CD0003000086000208A49091F0860002516E0CE
:101CE000E009874908606006040E0120FEF73EFB0C
:101CF00001208449C1F8A001FEF738FB002080498B
:101D0000091F08600120FEF731FB681CC5B2082DD1
:101D1000E6DB70BD2DE9F04105460E4617469846B4
:101D2000FFF70CFF10B90120BDE8F0816906080E2D
:101D3000FFF7C3FFFFF750FF18B9FFF72DFF012092
:101D4000F2E73046FFF7B9FFFFF746FF00240BE04C
:101D500018F80400FFF7B1FFFFF73EFF18B9FFF7CF
:101D60001BFF0020E0E7641CBC42F1DBFFF714FF1F
:101D70000020D9E770B5054600246048006820F0CF
:101D8000F0005E4908600846006840F08000086086
:101D9000002617E000205A49091F08600220FEF7BC
:101DA000E5FA01205749C1F8A0016006040E544825
:101DB0008038006808B1601CC4B20220FEF7D6FA71
:101DC000701CC6B2082EE5DB15B1FFF733FF01E04A
:101DD000FFF752FF204670BD2DE9F04106460F4641
:101DE00014461D46FFF7AAFE10B90120BDE8F08198
:101DF0007106080EFFF761FFFFF7EEFE18B9FFF757
:101E0000CBFE0120F2E73846FFF757FFFFF7E4FE6D
:101E1000FFF794FE012101EB4601C8B2FFF74DFF29
:101E2000FFF7DAFE0DE0012C04D10020FFF7A2FF3E
:101E3000287003E00120FFF79DFF28706D1C601ED5
:101E4000C4B2002CEFD1FFF7A7FE0020CEE770B59B
:101E500005460E460024FFF771FE2846FFF72DFFCA
:101E6000641CFFF7B9FE3046FFF727FF641CFFF73D
:101E7000B3FEFFF763FE691CC8B2FFF71EFF641CC8
:101E8000FFF7AAFE0020FFF775FF0446FFF784FE68
:101E9000204670BD2DE9F0410746884615461E468E
:101EA0000024FFF74BFE3846FFF707FFFFF794FECD
:101EB0004046FFF702FFFFF78FFEFFF73FFE791C5A
:101EC000C8B2FFF7FAFEFFF787FE00BF0DE0681EFD
:101ED000A04204D00120FFF74DFF305503E0002061
:101EE000FFF748FF3055601CC4B2AC42EFDBFFF790
:101EF00053FE2046BDE8F08100100240040C014072
:101F0000A4812142008021422DE9F04180460D4606
:101F100016461F460024FFF711FE4046FFF7CDFE90
:101F2000FFF75AFE2846FFF7C8FEFFF755FE00BF31
:101F300006E0385DFFF7C1FEFFF74EFE601CC4B23D
:101F4000B442F6DBFFF728FE0120BDE8F08170B552
:101F500005460E46144631462846FFF778FF2070A6
:101F6000012070BD37B504460D4602AB012229465B
:101F70002046FFF7C9FF3EBD2DE9F84307468846D6
:101F800014461D46089E6A4641463846FFF7DFFF65
:101F900028B3601CFF2101FA00F0C4F108012944B4
:101FA000491EFF220A41104300F0FF09C5F1080055
:101FB00006FA00F0C6B2C4F1070006419DF8000021
:101FC00000EA090000909DF80000304300909DF861
:101FD000002041463846FFF7C5FFBDE8F8830020E2
:101FE000FBE7F8B506460F4614461D466A463946D5
:101FF0003046FFF7ACFF2DB10120A0409DF8001046
:10200000084305E00120A0409DF8001021EA0000EF
:10201000C0B200909DF8002039463046FFF7A2FF7D
:10202000F8BD00002DE9F05F05460E4630010AF0CC
:10203000F3FF8146EF4905FB01F00AF0EDFF824610
:1020400049460AF09FFE074638460AF0ADFF84B2C3
:1020500020460AF0E1FF834639460BF022F982461A
:102060004FF083410BF020F881460AF09DFF804637
:102070004FF6FF7000EA041404EB080084B2DE4857
:10208000806940F00800DC4988610846C06940F476
:102090008020C861D948006820F47F40D749086093
:1020A0000846006840F40B400860D44808300068D7
:1020B00040F48060D14908310860CF48006940F49D
:1020C0008020CD4908610846006920F4802008611D
:1020D000CB480480001D008842F20C010843C84927
:1020E000091D08800846008840F480700880084672
:1020F000008840F0200008800223272201210020D0
:10210000FEF788F9BDE8F09F2DE9FF5FBC4808386D
:10211000008800F0200000287ED0B948001F008809
:10212000B8490870084600784B2803D10120B64909
:1021300008700AE0B3480078492803D0B148007815
:102140004A2802D10020B0490870B0480078002821
:1021500053D1AD480078D0B9AA480078412809DBAE
:10216000A8480078482805DCA64800784038A849E7
:1021700008703CE0A3480078082804DCA1480078F7
:10218000A349087033E00020A14908702FE09E4861
:10219000007801282BD19B480078432806D10020E5
:1021A0009C49087001209C4908700FE09548007810
:1021B000472806D1012097490870002096490870E9
:1021C00004E0002093490870934908708D48007816
:1021D000412803D08B480078452805D189480078EC
:1021E00040388B49087002E00020894908708B480C
:1021F000007840F0010089490870824800787B2807
:1022000002D10120864908707E4800787D2802D1DD
:1022100002208349087000E083E0814800780128AB
:102220000AD1784800787F497F4A127888547E48DE
:102230000078401C7C49087079480078022870D1E9
:102240007848C078502803D101207849087096E07A
:102250007448C078572803D10120754908708EE072
:10226000704840782328F2D06F4800787149087090
:1022700034E06D4909786F4A1278881A0AF071F9CA
:10228000804642460B4600206B4909F0E3F90446BC
:102290000D4668490978491E624A515CA1F1300037
:1022A0000AF05FF9064622462B460AF0C1F982463B
:1022B0008B46624800680AF0CBFC52465B46CDE98B
:1022C000000109F00BFFCDE9020109F0D5FE5B49E1
:1022D000086058480078401E5649087055480078F4
:1022E0000428C6DA4F4840783038092846D2DFE85B
:1022F00000F0050C13191E23282D3E004F480068DE
:102300000AF036FE4E49086038E04C4800680AF092
:102310002FFE4C49086031E0484800684A4908608F
:102320002CE039E0454800684849086026E0434809
:1023300000684749086021E0404800684549086056
:102340001CE03E4800684449086017E03B480068CC
:102350000AF02AFE41490880084600880AF05CFE1F
:1023600004463F490AF00EFD3E49086006E0334846
:1023700000680AF019FE3C49088000BF00BF002039
:1023800027490870284908702A4908702B490860B5
:102390003221244808F03CFCBDE8FF9F3348007818
:1023A000F8B1184800785A281BD000202F4A107026
:1023B00014480078012806DB12480078082802DC5F
:1023C000104801780BE00F480078412807DB0D48E2
:1023D0000078482803DC0B4800784038C1B2084632
:1023E0007047084800785A2802D101201F4A10700F
:1023F0000020F5E740420F0000100240040C0140AD
:10240000084800406A000020830000206E00002081
:10241000020000200000002001000020C100002078
:10242000F4000020B6060020F50000207100002016
:1024300072000020F600002000002440F800002078
:10244000B4000020B8000020A0000020A40000205C
:10245000A8000020AC000020B0000020BC0000203C
:102460000050C34714010020BE000020FC000020E3
:1024700010B51248806940F0080010498861104882
:10248000006820F470000E4908600846006840F4B7
:10249000000008600A480C30006840F0200008493D
:1024A0000C310860012205211046FDF7EDFF0223E3
:1024B000172219461846FDF7ADFF10BD0010024067
:1024C000000C0140FD48FE494860FE4848607047E6
:1024D000FB48006940F08000F94908617047F848FE
:1024E000C16801F0010008B10120704701F004004B
:1024F00008B10220F9E701F0100008B10320F4E769
:102500000020F2E770B5044600BFFFF7E8FF05467C
:10251000012D00D006E00120FDF728FF601E84B2E7
:10252000002CF2D100BF04B9FF25284670BD70B55C
:102530000546002445F6FF70FFF7E4FF0446C4B9E2
:10254000DF48006940F00200DD4908610846456146
:10255000006940F04000086145F6FF70FFF7D2FFC8
:102560000446012C05D0D648006920F00200D44969
:102570000861204670BD70B505460E46FF20FFF786
:10258000C1FF044694B9CE48006940F00100CC492F
:1025900008612E80FF20FFF7B5FF0446012C05D00F
:1025A000C748006920F00100C5490861204670BD98
:1025B0000146088870472DE9F04105460E4617464A
:1025C000002407E036F814102846FFF7D4FFAD1CAE
:1025D000601C84B2BC42F5DBBDE8F08130B5034637
:1025E0000C461546002207E01846FFF7E1FF24F8E5
:1025F00012009B1C501C82B2AA42F5DB30BD2DE9B3
:10260000F05F80468A461746B8F1006F02D3AE48A5
:10261000804501D3BDE8F09FFFF754FFA8F1006BA0
:102620004FEA9B25CBF34809C9F50074A74200DCAB
:102630003C464EE04FF0006101EB85208A14A3492F
:10264000FFF7CCFF00260BE009EB06009F4931F8AD
:1026500010004FF6FF71884200D003E0701C86B274
:10266000A642F1DB00BFA6421BDA4FF0006101EB8E
:102670008520FFF75CFF002608E03AF8160006EB1D
:102680000901924A22F81100701C86B2A642F4DBBE
:102690004FF0006101EB85208A148C49FFF78BFF16
:1026A00004E0224651464046FFF785FFA74200D18D
:1026B00010E06D1C4FF000090AEB440A08EB4408D7
:1026C000381B87B2B7F5007F02DD4FF4007400E0DD
:1026D0003C46AFE700BFFFF7FBFE00BF9AE713B52C
:1026E0000446012201A92046FFF789FF1CBD10B551
:1026F0000A2277497748FFF771FF754800884FF63F
:10270000FF71884251D17248408888424DD170484B
:102710008088884249D16E48C088884245D16C483B
:102720000089884241D16A48408988423DD1684841
:102730008089884239D16648C089884235D1644849
:10274000008A884231D16248408A88422DD13C209B
:102750006149086040F6B8306049086060486149E6
:10276000086000206049086060486149086061486D
:1027700061490860614908603220614908804FF46E
:10278000E260604908804FF0FF305F4908805D4893
:10279000007800F0080018B100205C4908804AE089
:1027A0004FF6FF705949088045E0494800884A497A
:1027B00008604748408849490860454988880AF0C8
:1027C0002BFC484908604249C8880AF025FC464964
:1027D00008603F4908890AF01FFC454908603C49E8
:1027E00048890AF019FC44490860394988890AF087
:1027F00013FC424908603648C08941490880344882
:10280000008A404908803248408A00B23E49088028
:102810002F48408A4FF6FF71884208D13948007826
:1028200000F0080018B100203849088003E04FF696
:10283000FF7036490880324800880AF0EDFB0446F4
:1028400033490AF09FFA3349086010BD10B5224899
:102850000088314908802148008848802148006864
:102860000AF0A2FB2C4988801F4800680AF09CFBF4
:102870002949C8801E4800680AF096FB264908814D
:102880001D4800680AF090FB234948811B480068F6
:102890000AF08AFB2049888119480088C8811948B4
:1028A00000884FF63F7108401B490882164800888F
:1028B00048820A220748FFF7A2FE10BD23016745A0
:1028C00000200240AB89EFCD00000108E80600209F
:1028D0005C02002000F80008B4000020B8000020CE
:1028E0000000A041A0000020A400002000004843F8
:1028F000A800002000004041AC000020B0000020F3
:10290000BC000020BE000020240100202601002081
:102910000050C34714010020700200200246FE4808
:1029200042700170008870470146087800024A78BA
:10293000104400028A7810440002CA78104470479C
:1029400070B504460D461646F448007801281CD19F
:10295000012C1AD1F248008818B90420F1490880E6
:1029600006E0EF480088A84202D10020ED49088027
:10297000EB480088B04205DAE9480088401CE84985
:10298000088002E00020E6490880E448007868BB3F
:10299000012C2BD10420E3490831088041F27070EA
:1029A000091D08800420E049088041F27070091D6B
:1029B00008800420DB4908800020DB4908390880B2
:1029C0006420D84914310880091D0880091D088039
:1029D000091D0880D4490C310880091D0880091D93
:1029E0000880091D08800120CC490870CB48007878
:1029F00001281FD1F4B90020C8490870C8490880CF
:102A0000C8490880002141F61F40FEF772FD0020F2
:102A1000C44914310880091D0880091D0880091D5A
:102A20000880C1490C310880091D0880091D0880F3
:102A3000091D088070BD0146002901DA4A4200E004
:102A40000A4690B270472DE9F04F97B006460F4600
:102A500090461D46209C41464FF07E500AF024FBD4
:102A6000314611900AF020F9294612900AF01CF91B
:102A700013900AF07DFA814628460AF0E9F8CDE97C
:102A8000100141464FF07E500AF00EFB09900AF00B
:102A9000DFF8CDE90C0138460AF0DAF8CDE9040197
:102AA0000020A24909F0C2FA00224FF08043CDE98C
:102AB000000109F0CFFBCDE90201DDE9042309F0B3
:102AC000B7FDCDE908014FF03F4130460AF0ECFA7E
:102AD00005900AF0BDF8CDE90601DDE9082309F00B
:102AE000FDFACDE90A01DDE90C2309F0F7FACDE999
:102AF0000E01DDE9102309F0F1FACDE9120109F028
:102B000001FD824628460AF0A3F8CDE910014146AE
:102B10004FF07E500AF0C8FA09900AF099F8CDE912
:102B20000C0138460AF094F8CDE9040100207F49F1
:102B300009F07CFA00224FF08043CDE9000109F052
:102B400089FBCDE90201DDE9042309F071FDCDE93E
:102B500008014FF03F4130460AF0A6FA05900AF00E
:102B600077F8CDE90601DDE9082309F087FFCDE913
:102B70000A01DDE90C2309F0B1FACDE90E01DDE926
:102B8000102309F0ABFACDE9120109F0BBFC834632
:102B90006748007800285DD14846FFF74CFF139046
:102BA0000AF03AFA15905046FFF745FF12900AF0E6
:102BB00033FA139015990AF043FB06D25046FFF7FB
:102BC0003AFF13900AF028FA15905846FFF733FFA2
:102BD00012900AF021FA139015990AF031FB06D2EF
:102BE0005846FFF728FF13900AF016FA159051483F
:102BF00000680AF0F9F9139015990AF021FA29D81A
:102C00004C4800680AF0F0F9139015990AF0BAF8E8
:102C1000149048460AF0E8F9129014990AF044FA20
:102C200013900AF0A5F9814650460AF0DDF912909A
:102C300014990AF039FA13900AF09AF98246584624
:102C40000AF0D2F9129014990AF02EFA13900AF0B1
:102C50008FF98346C4F80090C4F804A0C4F808B003
:102C60000020E06017B0BDE8F08F2DE9FF4F91B074
:102C70001E9C119880F000404FF07E5102900AF0A7
:102C800013FA05464FF07E5112980AF00DFA0646E7
:102C9000DDE913010AF008F84FF07E5102900AF0C6
:102CA00003FA0746A846AB4685F000400A9085F037
:102CB00000400790B14686F000400C90099686F0DF
:102CC00000400690BA460B9708970597494640463C
:102CD00009F0EAFF5146029009F0E6FF10905846CD
:102CE0000C9909F0E1FF02900B9909F0DDFF0F90BC
:102CF000DDE9091009F0D8FF0290089909F0D4FF26
:102D00000E90DDE9061009F0CFFF0290059909F059
:102D1000CBFF0D9006480FE00001002028010020A5
:102D20002A010020202C0140280400400000084017
:102D30006E000020B40000200078002877D11098A1
:102D40000AF016F90190FFF776FE02900AF064F996
:102D500004900F980AF00CF90090FFF76CFE0190B8
:102D60000AF05AF9029004990AF06AFA09D20F9807
:102D70000AF0FEF80190FFF75EFE02900AF04CF9AF
:102D800004900E980AF0F4F80090FFF754FE0190BA
:102D90000AF042F9029004990AF052FA09D20E9808
:102DA0000AF0E6F80190FFF746FE02900AF034F9C7
:102DB00004900D980AF0DCF80090FFF73CFE0190BB
:102DC0000AF02AF9029004990AF03AFA09D20D9809
:102DD0000AF0CEF80190FFF72EFE02900AF01CF9DF
:102DE0000490FE4800680AF0FFF8029004990AF087
:102DF00027F91CD8F94800680AF0F6F802900499FF
:102E000009F0C0FF0390039910980AF04DF9109053
:102E100003990F980AF048F90F9003990E980AF059
:102E200043F90E9003990D980AF03EF90D900F9812
:102E30000AF09EF8206010980AF09AF860600E98E8
:102E40000AF096F8A0600D980AF092F8E06015B0CC
:102E5000BDE8F08F2DE9F04F95B080468946924647
:102E60009B461E9CCDF8508089F00045594650463F
:102E700009F01AFF064600200F900D900A90079067
:102E80002F4685F000400C90099585F00040069093
:102E900086F000400E9086F000400B9086F00040D7
:102EA000089086F00040059039460F9809F0FCFE26
:102EB00002900E9909F0F8FE1390DDE90C1009F06C
:102EC000F3FE02900B9909F0EFFE1290DDE9091074
:102ED00009F0EAFE0290089909F0E6FE1190DDE99A
:102EE000061009F0E1FE0290059909F0DDFE109050
:102EF000BB480078002877D113980AF039F8019080
:102F0000FFF799FD02900AF087F8049012980AF0F2
:102F10002FF80090FFF78FFD01900AF07DF80290E6
:102F200004990AF08DF909D212980AF021F801905B
:102F3000FFF781FD02900AF06FF8049011980AF0F3
:102F400017F80090FFF777FD01900AF065F80290FE
:102F500004990AF075F909D211980AF009F801905C
:102F6000FFF769FD02900AF057F80490109809F0F5
:102F7000FFFF0090FFF75FFD01900AF04DF802900F
:102F800004990AF05DF909D2109809F0F1FF019057
:102F9000FFF751FD02900AF03FF804908F48006857
:102FA0000AF022F8029004990AF04AF81CD88B48DB
:102FB00000680AF019F80290049909F0E3FE039002
:102FC000039913980AF070F81390039912980AF075
:102FD0006BF81290039911980AF066F81190039912
:102FE00010980AF061F81090129809F0C1FF206063
:102FF000139809F0BDFF6060119809F0B9FFA06057
:10300000109809F0B5FFE06015B0BDE8F08F2DE92C
:10301000F04F95B004460E4617461E9DA04686F01A
:103020000049149700200F90C3460B90CDF82080E4
:10303000CA460D90CDF8289007900E900C900990FC
:10304000069051460F9809F02FFE03900E9909F053
:103050002BFE139058460D9909F026FE03900C990B
:1030600009F022FE1290DDE90A1009F01DFE03901E
:10307000099909F019FE1190DDE9071009F014FE15
:103080000390069909F010FE10905548007800282A
:1030900077D1139809F06CFF0290FFF7CCFC0390F6
:1030A00009F0BAFF0590129809F062FF0190FFF74E
:1030B000C2FC029009F0B0FF039005990AF0C0F835
:1030C00009D2129809F054FF0290FFF7B4FC039064
:1030D00009F0A2FF0590119809F04AFF0190FFF74F
:1030E000AAFC029009F098FF039005990AF0A8F84D
:1030F00009D2119809F03CFF0290FFF79CFC039065
:1031000009F08AFF0590109809F032FF0190FFF74F
:1031100092FC029009F080FF039005990AF090F864
:1031200009D2109809F024FF0290FFF784FC039065
:1031300009F072FF05902948006809F055FF0390D7
:10314000059909F07DFF1CD82448006809F04CFF60
:103150000390059909F016FE04900499139809F05C
:10316000A3FF13900499129809F09EFF12900499FE
:10317000119809F099FF11900499109809F094FFA3
:103180001090129809F0F4FE2860139809F0F0FEF0
:103190006860119809F0ECFEA860109809F0E8FE4C
:1031A000E86015B0BDE8F08F2DE9F84305460E46FE
:1031B00014460C48007800F00700062871D2DFE8BA
:1031C00000F00371D7FAD8F90648008800F480703F
:1031D000B8B30448008800F4806005E0B400002023
:1031E0006E000020BE000020B0B1FE4800684042E2
:1031F00009F0FAFE8146FC480168484609F054FF90
:10320000074684F00048F9483B4642463146009064
:103210002846FFF718FC43E0F2480068404209F0F6
:10322000E3FE8046F0480168404609F03DFF07464E
:10323000EE483B462246314600902846FFF703FC05
:103240002EE0FFE7EA48008800F48060A8B1E54876
:10325000006809F0C9FE8146E3480168484609F064
:1032600023FF074684F00048E0483B46424631468B
:1032700000902846FFF7E7FB12E0DA48006809F003
:10328000B3FE8046D8480168404609F00DFF074666
:10329000D6483B462246314600902846FFF7D3FBEE
:1032A0009BE135E1D248008800F4807080B3D048BB
:1032B000008800F48060B0B1CA480068404209F05C
:1032C00093FE8146C8480168484609F0EDFE07466E
:1032D00084F00048C5483B464246314600902846A7
:1032E000FFF7C3FC43E0BF480068404209F07CFEA2
:1032F0008046BD480168404609F0D6FE0746BB48F7
:103300003B462246314600902846FFF7AEFC2EE0B1
:10331000FFE7B748008800F48060A8B1B1480068B2
:1033200009F062FE8146B0480168484609F0BCFEDB
:10333000074684F00048AD483B464246314600907F
:103340002846FFF792FC12E0A648006809F04CFE00
:103350008046A5480168404609F0A6FE0746A348F6
:103360003B462246314600902846FFF77EFC34E17A
:1033700000BF9F48008800F4807090B39C4800888C
:1033800000F48060C0B197480068404209F02CFE0C
:10339000814695480168484609F086FE074684F054
:1033A000004892483B464246314600902846FFF787
:1033B00051FD45E046E044E08A480068404209F09B
:1033C00013FE804688480168404609F06DFE0746B6
:1033D00086483B462246314600902846FFF73AFD94
:1033E0002EE0FFE78248008800F48060A8B17D48A5
:1033F000006809F0F9FD81467B480168484609F0FC
:1034000053FE074684F0004878483B464246314622
:1034100000902846FFF71EFD12E07248006809F090
:10342000E3FD804670480168404609F03DFE0746CE
:103430006E483B462246314600902846FFF70AFD7B
:10344000CBE000BF6A48008800F4807080B3684811
:10345000008800F48060B0B162480068404209F022
:10346000C3FD814660480168484609F01DFE0746D5
:1034700084F000485D483B4642463146009028466D
:10348000FFF7C5FD43E057480068404209F0ACFD36
:10349000804655480168404609F006FE07465348F5
:1034A0003B462246314600902846FFF7B0FD2EE00D
:1034B000FFE74F48008800F48060A8B149480068E1
:1034C00009F092FD814648480168484609F0ECFD44
:1034D000074684F0004845483B4642463146009046
:1034E0002846FFF794FD12E03E48006809F07CFD95
:1034F00080463D480168404609F0D6FD07463B48F6
:103500003B462246314600902846FFF780FD64E0A6
:103510003748008800F4807080B33548008800F494
:103520008060B0B12F480068404209F05DFD8146DF
:103530002D480168484609F0B7FD074684F0004869
:103540002A483B464246314600902846FFF77BFA20
:1035500043E024480068404209F046FD8046224886
:103560000168404609F0A0FD074620483B46224638
:10357000314600902846FFF766FA2EE0FFE71C4828
:10358000008800F48060A8B11648006809F02CFD9E
:10359000814615480168484609F086FD074684F0D3
:1035A000004812483B464246314600902846FFF705
:1035B0004AFA12E00B48006809F016FD80460A48F6
:1035C0000168404609F070FD074608483B46224620
:1035D000314600902846FFF736FA00BF03480068DE
:1035E000044909E01C01002010010020E80A002025
:1035F000BE000020500000200860FA484068FA49E8
:103600000860F8488068F9490860F648C068F849D9
:103610000860BDE8F883F8B505460E461446F5483F
:10362000007800F00700062872D2DFE800F0033AC5
:1036300072AA73ABEF48008800F48070C0B1ED4807
:10364000008800F4806050B184F00047E548002312
:103650003A46314600902846FFF7F5F920E0E14868
:1036600000232246314600902846FFF7ECF917E088
:10367000E048008800F4806050B184F00047D948E9
:1036800000233A46314600902846FFF7DCF907E070
:10369000D44800232246314600902846FFF7D3F94C
:1036A000DDE0D448008800F48070C0B1D1480088C3
:1036B00000F4806050B184F00047CA4800233A46C5
:1036C000314600902846FFF7D0FA20E0C548002395
:1036D0002246314600902846FFF7C7FA17E0C54852
:1036E000008800F4806050B184F00047BD4800239A
:1036F0003A46314600902846FFF7B7FA07E0B94846
:1037000000232246314600902846FFF7AEFAA6E095
:103710006FE000BFB748008800F48070C0B1B548C2
:10372000008800F4806050B184F00047AD48002369
:103730003A46314600902846FFF78CFB20E0A94826
:1037400000232246314600902846FFF783FB17E00E
:10375000A848008800F4806050B184F00047A14878
:1037600000233A46314600902846FFF773FB07E0F6
:103770009C4800232246314600902846FFF76AFB0A
:103780006DE000BF9B48008800F48070C0B199488C
:10379000008800F4806050B184F000479148002315
:1037A0003A46314600902846FFF731FC20E08D482C
:1037B00000232246314600902846FFF728FC17E0F8
:1037C0008C48008800F4806050B184F00047854840
:1037D00000233A46314600902846FFF718FC07E0E0
:1037E000804800232246314600902846FFF70FFC10
:1037F00035E08048008800F48070C0B17D480088C2
:1038000000F4806050B184F00047764800233A46C7
:10381000314600902846FFF716F920E07148002352
:103820002246314600902846FFF70DF917E071480F
:10383000008800F4806050B184F00047694800239C
:103840003A46314600902846FFF7FDF807E0654804
:1038500000232246314600902846FFF7F4F800BFC7
:1038600060480068644908605E48406863490860D1
:103870005C488068624908605A48C06861490860CD
:10388000F8BD30B5002816DD5A4C248804F4807445
:1038900044B14FF4E1545C4D2C80C0F5E1545B4DD4
:1038A0002C801EE04FF4E154584D2C80C0F5E154BB
:1038B000554D2C8015E04F4C248804F4807444B19D
:1038C0004FF4E154514D2C8000F5E1544E4D2C80C5
:1038D00007E04FF4E1544C4D2C8000F5E1544B4D82
:1038E0002C8000291ADD434C248804F4807454B1E0
:1038F0004FF4E154444D2D1D2C80C1F5E154434D4E
:103900002D1D2C8024E04FF4E154404D2D1D2C80C2
:10391000C1F5E1543C4D2D1D2C8019E0354C248817
:1039200004F4807454B14FF4E154384D2D1D2C80B3
:1039300001F5E154344D2D1D2C8009E04FF4E15484
:10394000314D2D1D2C8001F5E154304D2D1D2C8065
:10395000002A1ADD274C248804F4807454B14FF4F3
:10396000E154294D08352C80C2F5E154274D083526
:103970002C8024E04FF4E154244D08352C80C2F50E
:10398000E154214D08352C8019E01A4C248804F4A8
:10399000807454B14FF4E1541C4D08352C8002F56D
:1039A000E154194D08352C8009E04FF4E154164DCF
:1039B00008352C8002F5E154144D08352C80002B7D
:1039C0002FDD0C4C248804F4807454B14FF4E1547E
:1039D0000D4D0C352C80C3F5E1540C4D0C352C806D
:1039E00035E015E0E80A00205400002058000020CF
:1039F0005C000020BE000020280000202C000020D9
:103A0000300000203400002034040040342C0140F9
:103A10004FF4E154FE4D2C80C3F5E154FD4D2C8054
:103A200015E0FD4C248804F4807444B14FF4E15453
:103A3000F74D2C8003F5E154F64D2C8007E04FF450
:103A4000E154F44D2C8003F5E154F14D2C8030BD50
:103A5000F24909684242914202DA4142EF4A11605A
:103A6000EE490968814201DDEC490860EC490968CA
:103A70004242914202DA4142E94A1160E84909684A
:103A8000814201DDE6490860E64909684242914207
:103A900002DA4142E34A1160E2490968814201DDEC
:103AA000E0490860E04909684242914202DA414235
:103AB000DD4A1160DC490968814201DDDA490860AC
:103AC000704770B5054640F2564085420DDA012434
:103AD000D648007810B90120D44908704FF4C87254
:103AE00050210120FEF72CFF1BE0D0480078012870
:103AF00016D1012440F2744085420ADD4FF4C872A9
:103B000050210020FEF71CFF00240020C749087048
:103B100007E04FF4C87250210120FEF711FF00E0CA
:103B20000024204670BD2DE9F05F05460C4624B305
:103B3000BF48007800F00400F8B1BD48007800F0FC
:103B4000030030B101280BD002280AD003280DD180
:103B500000E000BFB74800684042B749086005E090
:103B600000BFB4480068B449086000BF00BFB04857
:103B7000007820F00400AE490870281BAF490860A7
:103B80000846006809F030FA8346AD480168584697
:103B900009F08AFA8046A9490968AA4A1268881A6F
:103BA00009F022FA8346A8480168584609F07CFAD1
:103BB0008146414609F078F807469F48006809F0B9
:103BC00013FA8246394609F06FF8064609F0D0F933
:103BD00099490860994800689A490860002C06DAFB
:103BE0009348007840F001009149087007E0002CEC
:103BF00005DD8F48007820F001008D4908701DBB5D
:103C000014BB8B48007800F00400E8B98A480068CB
:103C1000884908600020884908608548007840F09D
:103C20000400834908700846007800F0010028B1BC
:103C30000846007840F00200087005E07C480078F3
:103C400020F002007A4908707B480068BDE8F09FC8
:103C50002DE9F05F05460C4624B37C48007800F05F
:103C60000400F8B17948007800F0030030B1012871
:103C70000BD002280AD003280DD100E000BF744801
:103C8000006840427349086005E000BF7048006862
:103C90007049086000BF00BF6C48007820F0040045
:103CA0006A490870281B6C4908600846006809F0DA
:103CB0009BF9834662480168584609F0F5F9804649
:103CC00065490968654A1268881A09F08DF98346C2
:103CD0005D480168584609F0E7F98146414608F019
:103CE000E3FF07465B48006809F07EF982463946E3
:103CF00008F0DAFF064609F03BF9564908605648D5
:103D0000006856490860002C06DA5048007840F0F8
:103D100001004E49087007E0002C05DD4B48007893
:103D200020F00100494908701DBB14BB47480078CA
:103D300000F00400E8B947480068454908600020E1
:103D4000444908604148007840F004003F49087049
:103D50000846007800F0010028B10846007840F0DD
:103D60000200087005E03948007820F00200374969
:103D7000087038480068BDE8F09F2DE9F05F0546FF
:103D80000C4624B33648007800F00400F8B13448FB
:103D9000007800F0030030B101280BD002280AD0CF
:103DA00003280DD100E000BF2E48006840422E4994
:103DB000086005E000BF2B4800682B49086000BF81
:103DC00000BF2748007820F0040025490870281B10
:103DD000264908600846006809F006F98346184835
:103DE0000168584609F060F9804620490968204A70
:103DF0001268881A09F0F8F8834613480168584693
:103E000009F052F98146414608F04EFF074631E07D
:103E1000402C014040040040BE0000204000002033
:103E200044000020480000204C0000202C0100200D
:103E30007C01002078010020700100206C0100202E
:103E4000B000002074010020AC00002068010020B8
:103E5000640100205C010020580100206001002066
:103E6000540100205001002048010020440100209E
:103E70004C010020FC48006809F0B6F8824639463B
:103E800008F012FF064609F073F8F7490860F74892
:103E90000068F7490860002C06DAF648007840F020
:103EA0000100F449087007E0002C05DDF1480078B6
:103EB00020F00100EF4908701DBB14BBED480078ED
:103EC00000F00400E8B9E8480068EB490860002009
:103ED000E5490860E748007840F00400E5490870CB
:103EE0000846007800F0010028B10846007840F04C
:103EF0000200087005E0DF48007820F00200DD498C
:103F00000870D9480068BDE8F09F2DE9F05F0546CC
:103F10000C4624B3D948007800F00400F8B1D74823
:103F2000007800F0030030B101280BD002280AD03D
:103F300003280DD100E000BFD14800684042D149BC
:103F4000086005E000BFCE480068CE49086000BFA9
:103F500000BFCA48007820F00400C8490870281B38
:103F6000C94908600846006809F03EF88346C7481A
:103F70000168584609F098F88046C3490968C44A60
:103F80001268881A09F030F88346C248016858461A
:103F900009F08AF88146414608F086FE0746B9488E
:103FA000006809F021F88246394608F07DFE064691
:103FB00008F0DEFFB3490860B3480068B449086000
:103FC000002C06DAAD48007840F00100AB490870DB
:103FD00007E0002C05DDA948007820F00100A74982
:103FE00008701DBB14BBA548007800F00400E8B9B8
:103FF000A4480068A24908600020A24908609F48C0
:10400000007840F004009D4908700846007800F0F0
:10401000010028B10846007840F00200087005E071
:104020009648007820F0020094490870954800688E
:10403000BDE8F09F30B5984C24684542AC4202DAA6
:104040004442954D2C60944C2468844201DD924C8E
:104050002060924C24684D42AC4202DA4C428F4DB3
:104060002C608E4C24688C4201DD8C4C21608C4C81
:1040700024685542AC4202DA5442894D2C60884C87
:104080002468944201DD864C2260864C24685D429F
:10409000AC4202DA5C42834D2C60824C24689C4224
:1040A00001DD804C236030BD2DE9F0477E4800687B
:1040B00008F09AFF06467D480168304609F0F1F89D
:1040C000054608F055FF82467948006808F08CFFE5
:1040D000064678480168304609F0E3F8054608F0DE
:1040E00047FF04467448006808F07EFF06467348A0
:1040F0000168304609F0D5F8054608F039FF8146D9
:10410000BAF1000F03D114B9B9F1000F0FD00AFBB7
:104110000AF104FB041109FB091008F022FA074612
:1041200007F084FF054608F0EDF965490860BAF12B
:10413000000F03D114B9B9F1000F0FD0484608F0B1
:1041400053FF0546204608F04FFF0646504608F04C
:104150004BFF07462A463146FFF75DFA594800688B
:10416000FEF769FC5849096848435549096890FBBE
:10417000F1F556480068FEF75EFC5349096848436C
:104180004F49096890FBF1F651480068FEF753FC6F
:104190004D49096848434A49096890FBF1F74D4881
:1041A0000068FEF748FC48490968484344490968E3
:1041B00090FBF1F82B46324639464046FFF73AFF6E
:1041C0003A48006808F0D4FE37490860394800686A
:1041D00008F0CEFE364908603848006808F0C8FE8E
:1041E00035490860BDE8F0872DE9F04704460D46E3
:1041F000601B08F0F9FE3849086008460168374836
:10420000006808F051FD35490860354801683248BA
:10421000006809F051F8804632480168404608F0CD
:1042200043FF06462D4801682F48006808F03CFF10
:104230008046294801682D48006808F035FF81460E
:10424000414608F031FD0746314608F02DFD28496A
:10425000086021480068224908602548006808F085
:1042600087FEBDE8F08700004801002044010020DF
:104270004C0100205401002050010020400100208A
:104280003C0100203401002030010020B00000205B
:1042900038010020AC000020400000204400002035
:1042A000480000204C000020C401002090000020A5
:1042B000C801002094000020CC01002098000020BC
:1042C000D001002034000020B40000203000002085
:1042D0002C00002028000020B0010020B8010020A0
:1042E000BC010020A8000020A4000020A0000020A5
:1042F000B40100202DE9F04704460D46601B08F08C
:1043000073FEFE49086008460168FD48006808F031
:10431000CBFCFB490860FB480168F848006808F0DE
:10432000CBFF8046F8480168404608F0BDFE0646CF
:10433000F3480168F548006808F0B6FE8046EF488B
:104340000168F348006808F0AFFE8146414608F076
:10435000ABFC0746314608F0A7FCEE490860E74889
:104360000068E8490860EB48006808F001FEBDE815
:10437000F0872DE9F04704460D46601B08F034FE37
:10438000E549086008460168E448006808F08CFCCC
:10439000E2490860E2480168DF48006808F08CFFE5
:1043A0008046D9480168404608F07EFE0646DB4854
:1043B0000168D648006808F077FE8046D648016854
:1043C000D348006808F070FE8146414608F06CFC56
:1043D0000746314608F068FCD2490860CE480068BC
:1043E000CF490860CF48006808F0C2FDBDE8F087FB
:1043F0002DE9F04704460D46601B08F0F5FDCA495B
:10440000086008460168C948006808F04DFCC749C3
:104410000860C7480168C448006808F04DFF80463E
:10442000B9480168404608F03FFE0646BF480168AB
:10443000B648006808F038FE8046BB480168B448BA
:10444000006808F031FE8146414608F02DFC074621
:10445000314608F029FCB7490860B3480068B44900
:104460000860B448006808F083FDBDE8F0872DE9D6
:10447000F0410446B04E0125002C7AD1AF480078B7
:10448000092878D2DFE800F0770511212D3D495940
:1044900065000020AA4908603146AA48006808F073
:1044A00003FCA8490860012567E03146A44800687C
:1044B00008F0FAFBA24908603146A248006808F0FB
:1044C000F3FBA0490860012557E031469C4800688D
:1044D00008F0EAFB9A49086000209A490860012523
:1044E0004BE031469648006808F0DEFB94490860CE
:1044F00031469448006808F0DFFE924908600125C3
:104500003BE000208E49086031468E48006808F084
:10451000D3FE8C49086001252FE0314688480068A9
:1045200008F0CAFE8649086031468648006808F0EF
:10453000C3FE8449086001251FE0314680480068B9
:1045400008F0BAFE7E49086000207E490860012517
:1045500013E031467A48006808F0AEFE78490860FA
:1045600031467848006808F09FFB764908600125CD
:1045700003E00DE1FFE7002500BF00BF724800889F
:1045800040F6B831884219DB7049B1F90410704A1D
:10459000B2F90020881A002801DB014600E0414200
:1045A00001290BDD6948B0F904006949B1F900102F
:1045B000401A6849096808446649086055BB66485E
:1045C0000078012811D100205D4908605D4908602C
:1045D00031466248006808F06FFE604908600020BC
:1045E0005F4908605B49086020E05E480078012868
:1045F00011D100205249086052490860314657489D
:10460000006808F051FB55490860002054490860D3
:10461000504908600AE0002049490860494908609B
:104620004E490860504800684D490860012D06D188
:104630000020494908704B490870484908604B48B8
:104640000068404208F0D0FC07463D480168384603
:1046500008F0F6FD06D245480068404208F0C4FC68
:10466000374908604148006808F0BEFC07463448F6
:104670000168384608F0E4FC05D23C48006808F0C0
:10468000B3FC2F49086039480068404208F0ACFC90
:1046900007462C480168384608F0D2FD06D2334858
:1046A0000068404208F0A0FC264908602F480068D6
:1046B00008F09AFC074623480168384608F0C0FC19
:1046C00005D22A48006808F08FFC1E490860274878
:1046D0000068404208F088FC0746204801683846D8
:1046E00008F0AEFD06D221480068404208F07CFC8C
:1046F0001A4908601D4800683AE00000A001002047
:10470000A8010020AC010020A8000020A400002087
:10471000A0000020A40100209001002098010020AA
:104720009C010020940100208001002088010020CD
:104730008C010020840100209A99993E02000020FB
:104740009000002094000020260100200402002098
:10475000240100201C0100200000002098000020FF
:10476000100100200100002014010020B4000020EE
:1047700008F03AFC0746FE480168384608F060FC3D
:1047800005D2FC48006808F02FFCF9490860E0E019
:10479000012CFCD1F84800780B286FD2DFE800F03C
:1047A000D7061632425E6F8B9BB7C700F34800688E
:1047B00008F01AFC0746F2480168384608F074FA17
:1047C000EF4908600120EF490870C1E0EB4800683C
:1047D00008F00AFC0746EC480168384608F064FA1D
:1047E000E94908600220E7490870E448006808F0D9
:1047F000FBFB0746E2480168384608F055FAE049F5
:104800000860A5E0DD48006808F0EEFB0746DE48DA
:104810000168384608F048FADB4908600320D949A6
:10482000087095E0D548006808F0DEFB0746D648DA
:104830000168384608F038FAD34908600420D149A5
:104840000870CE48006808F0CFFB0746CC480168E6
:10485000384608F026FDCA49086079E0C748006874
:1048600008F0C2FB0746C6480168384608F019FD43
:10487000C34908600520C349087069E067E0BF4884
:10488000006808F0B1FB0746BF480168384608F0E9
:1048900008FDBD4908600620BA490870B74800689D
:1048A00008F0A2FB0746B6480168384608F0F9FC54
:1048B000B34908604CE0B148006808F095FB074632
:1048C000B1480168384608F0ECFCAF4908600720A1
:1048D000AC4908703CE0A948006808F085FB074631
:1048E000A9480168384608F0DCFCA74908600820A0
:1048F000A4490870A148006808F076FB0746A04864
:104900000168384608F0D0F99D49086020E09B48CE
:10491000006808F069FB074695480168384608F0CA
:10492000C0FC9349086009209649087010E093483C
:10493000006808F059FB07468D480168384608F0C2
:10494000B3F98B4908600A208E49087000E000BF67
:1049500000BF8E48007800F0010040B18B4800781D
:1049600020F0010089490870C820894908808848DA
:10497000008868B186480088401E854908807C48C8
:1049800002687F48016880480068FEF70DFC09E076
:1049900000208049086080490860002211461046C6
:1049A000FEF702FCBDE8F0812DE9F04F85B07B48B1
:1049B0000078012804D002287DD003287CD100E0B3
:1049C00000BF7648C07900F0040008B9012401E076
:1049D0004FF0FF347148C07900F0020008B901259A
:1049E00001E04FF0FF356D4A91785078FDF796FF62
:1049F00004906A4A1179D078FDF790FF83466748A2
:104A0000C07900F0100078B96448C07900F0010066
:104A100008B9012601E04FF0FF36604A91795079DC
:104A2000FDF77CFF81463AE04FF000095B48C07912
:104A300000F0010010B94FF0010A01E04FF0FF3A19
:104A4000564A91795079FDF769FF03900020534948
:104A5000487188710846C07920F01000C87150482C
:104A6000008800F4006068B103980AFB00F000EBD6
:104A7000C00101EB401047490968A1EB800045499E
:104A800008600CE003980AFB00F000EBC00101EBAA
:104A900040104049096801EB80003E4908600498D5
:104AA00002280EDC3F48007840F001003D490870C4
:104AB0000846007801E0CDE037E220F002000870FF
:104AC0000AE03848007840F002003649087008468D
:104AD000007820F001000870BBF1020F0BDC3148B8
:104AE000007840F004002F4908700846007820F054
:104AF000080008700AE02B48007840F008002949B7
:104B000008700846007820F004000870B9F1020F20
:104B100006DC2448007840F010002249087005E0C7
:104B20002048007820F010001E490870049904FB0A
:104B300001F008F059FA1449086005FB0BF008F081
:104B400053FA0F49086006FB09F008F04DFA0849CE
:104B500008601348007800F0070002282ED01048A3
:104B6000007800F00700032828D00D4800781BE0EB
:104B700098000020B400002002000020B8000020AF
:104B8000940000200301002090000020C1000020BC
:104B9000C00100201C01002020010020480200204C
:104BA000BE000020D401002000F00700042805D03A
:104BB000FE48007800F0070005284AD1FC49FD486E
:104BC000006808F0DFF8FB490860F949FA48006816
:104BD00008F0D8F8F8490860F549F848006808F086
:104BE000D1F8F6490860F3480168F14808F028FA5E
:104BF00002D2EF48EF490860F149EE48006808F03A
:104C00001FFA02D2EE48EB490860EB480168E84819
:104C100008F016FA02D2E648E7490860E849E64893
:104C2000006808F00DFA02D2E548E3490860E3485D
:104C30000168DF4808F004FA02D2DD48DF49086065
:104C4000DF49DE48006808F0FBF902D2DC48DB49A6
:104C500008606AE1D548007800F00700E0BBD94859
:104C6000C07900F0040008B9012401E04FF0FF34DE
:104C7000D448C07900F0020008B9012501E04FF0E6
:104C8000FF35D048C07900F0010008B9012601E0E5
:104C90004FF0FF36CB4A91785078FDF73FFE6043E6
:104CA000009008F0A1F9C3490860C64A1179D0788C
:104CB000FDF734FE6843009008F096F9BE4908609D
:104CC000C04A91795079FDF729FE7043009008F0B1
:104CD0008BF9BA49086027E1FFE7B448007800F093
:104CE0000700012852D1B748407A00F0040008B903
:104CF000012401E04FF0FF34B248407A00F0020096
:104D000008B9012501E04FF0FF35AE48407A00F0C8
:104D1000010008B9012601E04FF0FF36A948407AAA
:104D200000F0080010B94FF0010801E04FF0FF3823
:104D3000A44A91785078FDF7F1FD6043009008F0A7
:104D400053F99C4908609F4A1179D078FDF7E6FD38
:104D50006843009008F048F997490860994A9179AA
:104D60005079FDF7DBFD7043009008F03DF9934961
:104D70000860944A117AD079FDF7D0FD00FB08F065
:104D8000009008F031F990490860CDE0874800783C
:104D900000F00700022811D08448007800F00700D6
:104DA00003280BD08148007800F00700042805D0C4
:104DB0007E48007800F0070005288CD18148407AB1
:104DC00000F0040008B9012401E04FF0FF347D48F1
:104DD000407A00F0020008B9012501E04FF0FF35EC
:104DE0007848407A00F0010008B9012601E04FF050
:104DF000FF367448407A00F0080010B94FF00108FF
:104E000001E04FF0FF386F4A91785078FDF786FD4A
:104E10006043009008F0E8F866490860694A117933
:104E2000D078FDF77BFD6843009008F0DDF862491B
:104E30000860644A91795079FDF770FD70430090E5
:104E400008F0D2F85D4908605E4A117AD079FDF722
:104E500065FD00FB08F0009008F0C6F85A490860AC
:104E600053495448006807F08DFF52490860504983
:104E70005148006807F086FF4F4908604C494F4889
:104E8000006807F07FFF4D49086049494E480068B7
:104E900007F078FF4C49086046480168444808F02C
:104EA000CFF802D24248434908604549414800686A
:104EB00008F0C6F802D242483E4908603E48016800
:104EC0003B4808F0BDF802D239483B4908603C49EC
:104ED0003948006808F0B4F802D239483649086009
:104EE00036480168324808F0ABF802D230483349FE
:104EF000086033493148006808F0A2F802D230480F
:104F00002E49086030480168294808F099F802D213
:104F100027482D4908602A492B48006808F090F876
:104F200002D227482849086000BF00BF2548007802
:104F3000802802D0C82838D133E1224A91785078AD
:104F4000FDF7ECFC0746B7F5004F67D11D4A117914
:104F5000D078FDF7E3FC0746B7F5004F5DD1194A5D
:104F600091795079FDF7DAFC0746012F02D1FDF760
:104F7000BEFB51E0022F4AD13C201449086040F6A4
:104F8000B8301349086013481349086000201349DA
:104F9000086013481349086013481449086014490D
:104FA000086032201349088026E0FEE0BE000020A1
:104FB0000000C842900000209400002098000020CB
:104FC0000000C8C2480200209C000020B40000205D
:104FD000B80000200000A041A0000020A400002094
:104FE00000004843A800002000004041AC00002021
:104FF000B0000020BC0000204FF4E260F7490880B8
:10500000F81EF7490880000CF649088005E0032FD8
:1050100002D10120F449087000BFC1E06FF40040E4
:1050200038443F2828D2DFE800F02028303A444EA8
:105030005862738ABABABABABABA939495969798DC
:10504000999A9B9CBABABABABABAA1A2A3A4A5A6C5
:10505000A7A8A9BABABABABAAABAAFB0B1B2B3B429
:10506000BABABABABABABABAB500E04A91795079BE
:10507000FDF754FCDE49086091E0DC4A91795079F3
:10508000FDF74CFCDB49086089E0D848C01CFDF7FF
:105090004BFC009007F0C0FFD74908607FE0D34881
:1050A000C01CFDF741FC009007F0B6FFD349086033
:1050B00075E0CE48C01CFDF737FC009007F0ACFF50
:1050C000CF4908606BE0C948C01CFDF72DFC00907B
:1050D00007F0A2FFCB49086061E0C448C01CFDF79F
:1050E00023FC009007F098FFC749086057E0BF48CD
:1050F000C01CFDF719FCC54908800846008807F068
:105100008BFFC349009007F03DFEC249086046E0AE
:10511000B64A91795079FDF701FCB04908800846FC
:10512000007800F0400018B10120BB49087005E08C
:10513000B948007820F00100B74908702FE0AB4A69
:1051400091795079FDF7EAFB00B2A549088026E085
:1051500000BF00BF00BF00BF00BF00BF00BF00BF57
:1051600000BF07F00F00AD49087018E000BF00BF96
:1051700000BF00BF00BF00BF00BF00BF00BF07F0FF
:105180002F00A64908700AE000BF00BF00BF00BFA3
:1051900000BF00BF07F03F00A049087000BF00BF7C
:1051A00003E00120FBF70EFA00BF00BF9C48007827
:1051B00000F0010088B18D480078032804DD8B4899
:1051C00000210160416001819548007820F00100D4
:1051D000934908703220934908808248008840F63D
:1051E000B831884245DB7D48007800F0080028B3DC
:1051F0007B48008880B24FF6FF71884239D07748EB
:10520000008800F40060D0B18749B1F90410744AF5
:10521000B2F90020881A002801DB014600E0414273
:10522000072926DD8048B0F904006D49B1F9001066
:10523000401A7E490968081A7C49086019E07A49D1
:10524000B1F90410664AB2F90020881A002801DB7F
:10525000014600E0414207290BDD7348B0F9040024
:105260005F49B1F90010401A7049096808446F4954
:1052700008606C48008800287ED06D48007828B906
:1052800068480088401E6749088002E0002067499E
:10529000086056480078012804D002282AD0032844
:1052A00027D178E04D48007800F0100050B96148EF
:1052B000007800F00500052804D100205E49086050
:1052C0005A4908605B48007800F0100020B151484E
:1052D00000685949086004E00020574908605349B4
:1052E0000860564802685648016856480068FDF74D
:1052F0005BFF71E03948007800F0070090B9514831
:10530000006807F035FE504908604D48006807F016
:105310002FFE4E4908604948006807F029FE4C49B5
:10532000086037E02D48007800F00700012817D00A
:105330002A48007800F00700022811D0274800789A
:1053400000F0070003280BD02448007800F0070085
:10535000042805D02148007800F00700052819D15D
:105360003848006807F004FE374908603448006890
:1053700007F0FEFD354900E070E008602F48006846
:1053800007F0F6FD324908603248006807F0F0FD8A
:105390003149086020E02748007800F00500052822
:1053A00004D1002024490860204908602148007881
:1053B00000F0100020B1174800681F49086004E0A1
:1053C00000201D490860194908601C480268DDE991
:1053D0000110FDF7E9FE00BF4AE00000BE0000201A
:1053E0002401002026010020720000204802002035
:1053F000B4000020B8000020A0000020A40000207D
:10540000A8000020AC000020B0000020BC0000205C
:105410000050C3471401002004000020C2000020F7
:1054200005010020D6010020040200201C010020FC
:105430006E000020D4010020100100209800002000
:105440009400002090000020500000205400002014
:10545000580000209C0000205C0000200020FE4935
:105460000860FE490860002211461046FDF79CFEC8
:1054700005B0BDE8F08F10B56420FBF754FC04467E
:10548000022C07D1F648007808B9012000E000207E
:10549000F349087010BD70B5F248006800287DD14E
:1054A0002020F1490860F148007808B9012000E0A7
:1054B0000020EE490870EE48007801280BD1ED4835
:1054C0000078401CC0B2EB4908700A2803D10020C4
:1054D0000870E749087003F071FAE4480078012881
:1054E00068D1E5480078E0B9E4480078012818D18F
:1054F000E348007800F0010098B1E248E2490A6808
:1055000002604A68426009890181DD48007820F024
:105510000100DB490870DD48007840F00100DB49FC
:105520000870DB480088B0F5FA6F0BDAD8480088BD
:10553000401CD74908804FF4FA7205210120FDF77D
:10554000FFF933E0D248008840F6B83188422DDABE
:10555000D048B0F90400C14909680844BF4908604F
:10556000CB480088401CCA490880642205210120DC
:10557000FDF7E6F9C648008840F6B831884215D1F3
:10558000B64800684FF47A7190FBF1F000B2C2495E
:1055900008804FF4C8725021002000E0C4E1FDF7FC
:1055A000CFF90020AC490860AC490860FFF763FF01
:1055B000002070BDB948008800F40070C0B102201E
:1055C000FCF7A3F94042B64908600320FCF79DF9B7
:1055D0004042B44908600420FCF797F94042B249C0
:1055E00008600520FCF791F94042B049086013E0DB
:1055F0000220FCF78AF9AA4908600320FCF785F924
:10560000A84908600420FCF780F9A7490860052034
:10561000FCF77BF9A5490860A5480068A04909681E
:105620000844A3490860A34800689E4909680844E3
:10563000A0490860A04800689B49096808449E4941
:1056400008609E4800689949096808449B490860B9
:105650006420FBF717FBFBF706FF054607F0C4FCC9
:10566000044697480168204607F01EFB94490860ED
:105670004FF07E519348006807F016FB91490446AD
:105680000860914907F040FC0ED18F498C480068B2
:1056900007F078FB044607F06BFC8C49086000209B
:1056A000874908608749086074480078012801D15B
:1056B000FFF77AF97948007800F0070004287DDACE
:1056C0008348007838BB6D48007818B98048007866
:1056D000FEF7CDFE7F48016871480068FEF715FCB3
:1056E0007D4908607D4801686E480068FEF745FB0B
:1056F0007B4908607B4801686B480068FEF7A8FAA0
:10570000794908607948016868480068FEF70BFA33
:10571000774908609AE05948007850B97548007890
:1057200018B9FCF73BFE7449087069480078FEF729
:105730009EFE684801685E480068FEF759FE6649AB
:105740000860664801685B480068FEF712FE64491D
:1057500008606448016858480068FEF7CBFD62495C
:1057600008606248016855480068FEF73DFD6049E1
:10577000086044480078022802D0FEF795FC06E055
:105780005E480368026801680068FEF753FC5248EF
:105790000068414242480068FEF7B7FB80104E495E
:1057A00008604F48006841423E480068FEF7E5FA4D
:1057B00080104B4908604C48006800E012E041420C
:1057C00039480068FEF744FA8010474908604848A5
:1057D0000068414235480068FEF7A5F98010444949
:1057E000086033E03B48006807F0FEFB054644498B
:1057F00007F05AFC044607F0BBFB374908603748FE
:10580000006807F0F1FB05463D4907F04DFC0446F2
:1058100007F0AEFB324908603248006807F0E4FB4D
:105820000546374907F040FC044607F0A1FB2E4926
:1058300008602E48006807F0D7FB0546304907F09E
:1058400033FC044607F094FB294908601F480068B0
:10585000FEF737F956E00000100100201C0100207F
:1058600004000020148121421404014002010020A0
:105870006900002068000020700000206F000020F8
:10588000C000002048020020520200200501002034
:10589000260100200402002024010020BE00002078
:1058A000080000200C000020100000201400002040
:1058B000180000201C0000202000002024000020F0
:1058C0000C010020080100200000C84260000020F8
:1058D0006E000020500000204000002054000020F6
:1058E0004400002058000020480000205C000020F8
:1058F0004C0000208300002002000020B4000020A3
:1059000000008A4280B90948007868B941F6F4205D
:10591000FEF79EF8064803680648026806480168D4
:1059200006480068FDF7ADFF002042E62801002090
:105930004C000020480000204400002040000020CF
:1059400038B50446FB4890F82400C0B114B10220D9
:10595000009001E000200090F64A1268D17BF54AE1
:10596000526810786B460122FCF7D4F910B14FF061
:10597000FF3038BD9DF80010EE48417423E0ED483B
:10598000807A10B94FF0FF30F3E724B1E948407C4A
:1059900008B10020EDE714B10120009001E00020E3
:1059A0000090E44A1268D17BE24A526810786B4654
:1059B0000122FCF7AFF910B14FF0FF30D9E79DF8A5
:1059C0000010DC4841740020D3E738B5002419E00A
:1059D000D8480068C07AA04204D0D6480068407D0C
:1059E000A04200D10CE0D349496808786B460122F7
:1059F0002146FCF7F1F910B14FF0FF3038BD00BF80
:105A0000601CC4B2CB4840680079A042E0DC0020B2
:105A1000F4E770B504460D46C6480068C07AA04257
:105A200004D0C4480068407DA04202D14FF0FF304E
:105A300070BDC04840680079A04202DC4FF0FF30E2
:105A4000F6E7BC49496808782B4601222146FCF755
:105A5000C3F9EDE738B50446B64890F82300A042F4
:105A600001D1002038BD14B13020009001E00020A9
:105A70000090B048807C20B19DF8000040F002000A
:105A80000090AC4890F8220020B19DF8000040F052
:105A900080000090A74A1268117DA64A52681078CB
:105AA0006B460122FCF736F910B14FF0FF30D9E711
:105AB000A04880F823400020D4E738B5044604F01D
:105AC000700010B10120009005E014B1002000909A
:105AD00001E040200090974A1268917C954A5268F4
